:100000000C9434000C943E000C943E000C943E0082
:100010000C943E000C943E000C943E000C943E0068
:100020000C943E000C943E000C943E000C943E0058
:100030000C943E000C943E000C943E000C943E0048
:100040000C943E000C943E000C943E000C943E0038
:100050000C943E000C943E000C943E000C943E0028
:100060000C943E000C943E0011241FBECFEFD8E04C
:10007000DEBFCDBF0E9440000C9465000C940000D0
:100080008AB18AB98CEF8BB980E284B929B189B180
:10009000887039B1922F947022FF10C091E08111C5
:1000A00001C090E09295990F907E95B929B189B1E0
:1000B000887039B1922F947022FDF0CF8823A9F374
:0E00C00034FDF3CF90E295B9F1CFF894FFCF65
:00000001FF
